{
  "_format": "hh-sol-artifact-1",
  "contractName": "RemiliasRegistrarController",
  "sourceName": "contracts/ethregistrar/RemiliasRegistrarController.sol",
  "abi": [
    {
      "inputs": [
        {
          "internalType": "contract RemiliasRegistrar",
          "name": "_base",
          "type": "address"
        },
        {
          "internalType": "contract ReverseRegistrar",
          "name": "_reverseRegistrar",
          "type": "address"
        },
        {
          "internalType": "contract IRemiliasNameWrapper",
          "name": "_nameWrapper",
          "type": "address"
        },
        {
          "internalType": "contract ENS",
          "name": "_ens",
          "type": "address"
        }
      ],
      "stateMutability": "nonpayable",
      "type": "constructor"
    },
    {
      "inputs": [],
      "name": "InvalidCollection",
      "type": "error"
    },
    {
      "inputs": [],
      "name": "NewOwnerIsZeroAddress",
      "type": "error"
    },
    {
      "inputs": [],
      "name": "NoHandoverRequest",
      "type": "error"
    },
    {
      "inputs": [],
      "name": "RegisteredNFT",
      "type": "error"
    },
    {
      "inputs": [],
      "name": "UnauthorisedHolder",
      "type": "error"
    },
    {
      "inputs": [],
      "name": "Unauthorized",
      "type": "error"
    },
    {
      "anonymous": false,
      "inputs": [
        {
          "indexed": false,
          "internalType": "address",
          "name": "collection",
          "type": "address"
        }
      ],
      "name": "CollectionAdded",
      "type": "event"
    },
    {
      "anonymous": false,
      "inputs": [
        {
          "indexed": false,
          "internalType": "address",
          "name": "collection",
          "type": "address"
        }
      ],
      "name": "CollectionRemoved",
      "type": "event"
    },
    {
      "anonymous": false,
      "inputs": [
        {
          "indexed": false,
          "internalType": "string",
          "name": "name",
          "type": "string"
        },
        {
          "indexed": true,
          "internalType": "bytes32",
          "name": "label",
          "type": "bytes32"
        },
        {
          "indexed": true,
          "internalType": "address",
          "name": "owner",
          "type": "address"
        },
        {
          "indexed": true,
          "internalType": "address",
          "name": "collection",
          "type": "address"
        },
        {
          "indexed": false,
          "internalType": "uint256",
          "name": "nft",
          "type": "uint256"
        }
      ],
      "name": "NameRegistered",
      "type": "event"
    },
    {
      "anonymous": false,
      "inputs": [
        {
          "indexed": true,
          "internalType": "address",
          "name": "pendingOwner",
          "type": "address"
        }
      ],
      "name": "OwnershipHandoverCanceled",
      "type": "event"
    },
    {
      "anonymous": false,
      "inputs": [
        {
          "indexed": true,
          "internalType": "address",
          "name": "pendingOwner",
          "type": "address"
        }
      ],
      "name": "OwnershipHandoverRequested",
      "type": "event"
    },
    {
      "anonymous": false,
      "inputs": [
        {
          "indexed": true,
          "internalType": "address",
          "name": "oldOwner",
          "type": "address"
        },
        {
          "indexed": true,
          "internalType": "address",
          "name": "newOwner",
          "type": "address"
        }
      ],
      "name": "OwnershipTransferred",
      "type": "event"
    },
    {
      "inputs": [
        {
          "internalType": "address",
          "name": "collection",
          "type": "address"
        }
      ],
      "name": "addCollection",
      "outputs": [],
      "stateMutability": "nonpayable",
      "type": "function"
    },
    {
      "inputs": [
        {
          "internalType": "address[]",
          "name": "collections",
          "type": "address[]"
        }
      ],
      "name": "addCollections",
      "outputs": [],
      "stateMutability": "nonpayable",
      "type": "function"
    },
    {
      "inputs": [
        {
          "internalType": "address",
          "name": "",
          "type": "address"
        }
      ],
      "name": "approvedCollections",
      "outputs": [
        {
          "internalType": "bool",
          "name": "",
          "type": "bool"
        }
      ],
      "stateMutability": "view",
      "type": "function"
    },
    {
      "inputs": [
        {
          "internalType": "string",
          "name": "name",
          "type": "string"
        }
      ],
      "name": "available",
      "outputs": [
        {
          "internalType": "bool",
          "name": "",
          "type": "bool"
        }
      ],
      "stateMutability": "view",
      "type": "function"
    },
    {
      "inputs": [],
      "name": "cancelOwnershipHandover",
      "outputs": [],
      "stateMutability": "payable",
      "type": "function"
    },
    {
      "inputs": [
        {
          "internalType": "address",
          "name": "pendingOwner",
          "type": "address"
        }
      ],
      "name": "completeOwnershipHandover",
      "outputs": [],
      "stateMutability": "payable",
      "type": "function"
    },
    {
      "inputs": [
        {
          "internalType": "address",
          "name": "",
          "type": "address"
        },
        {
          "internalType": "uint256",
          "name": "",
          "type": "uint256"
        }
      ],
      "name": "domains",
      "outputs": [
        {
          "internalType": "string",
          "name": "",
          "type": "string"
        }
      ],
      "stateMutability": "view",
      "type": "function"
    },
    {
      "inputs": [],
      "name": "nameWrapper",
      "outputs": [
        {
          "internalType": "contract IRemiliasNameWrapper",
          "name": "",
          "type": "address"
        }
      ],
      "stateMutability": "view",
      "type": "function"
    },
    {
      "inputs": [],
      "name": "owner",
      "outputs": [
        {
          "internalType": "address",
          "name": "result",
          "type": "address"
        }
      ],
      "stateMutability": "view",
      "type": "function"
    },
    {
      "inputs": [
        {
          "internalType": "address",
          "name": "pendingOwner",
          "type": "address"
        }
      ],
      "name": "ownershipHandoverExpiresAt",
      "outputs": [
        {
          "internalType": "uint256",
          "name": "result",
          "type": "uint256"
        }
      ],
      "stateMutability": "view",
      "type": "function"
    },
    {
      "inputs": [
        {
          "internalType": "string",
          "name": "name",
          "type": "string"
        },
        {
          "internalType": "address",
          "name": "owner",
          "type": "address"
        },
        {
          "internalType": "address",
          "name": "collection",
          "type": "address"
        },
        {
          "internalType": "uint256",
          "name": "nft",
          "type": "uint256"
        },
        {
          "internalType": "address",
          "name": "resolver",
          "type": "address"
        },
        {
          "internalType": "bytes[]",
          "name": "data",
          "type": "bytes[]"
        }
      ],
      "name": "register",
      "outputs": [],
      "stateMutability": "nonpayable",
      "type": "function"
    },
    {
      "inputs": [
        {
          "internalType": "address",
          "name": "collection",
          "type": "address"
        }
      ],
      "name": "removeCollection",
      "outputs": [],
      "stateMutability": "nonpayable",
      "type": "function"
    },
    {
      "inputs": [],
      "name": "renounceOwnership",
      "outputs": [],
      "stateMutability": "payable",
      "type": "function"
    },
    {
      "inputs": [],
      "name": "requestOwnershipHandover",
      "outputs": [],
      "stateMutability": "payable",
      "type": "function"
    },
    {
      "inputs": [
        {
          "internalType": "address",
          "name": "collection",
          "type": "address"
        },
        {
          "internalType": "uint256",
          "name": "nft",
          "type": "uint256"
        }
      ],
      "name": "resetOwner",
      "outputs": [],
      "stateMutability": "nonpayable",
      "type": "function"
    },
    {
      "inputs": [],
      "name": "reverseRegistrar",
      "outputs": [
        {
          "internalType": "contract ReverseRegistrar",
          "name": "",
          "type": "address"
        }
      ],
      "stateMutability": "view",
      "type": "function"
    },
    {
      "inputs": [
        {
          "internalType": "bytes4",
          "name": "interfaceID",
          "type": "bytes4"
        }
      ],
      "name": "supportsInterface",
      "outputs": [
        {
          "internalType": "bool",
          "name": "",
          "type": "bool"
        }
      ],
      "stateMutability": "pure",
      "type": "function"
    },
    {
      "inputs": [
        {
          "internalType": "address",
          "name": "newOwner",
          "type": "address"
        }
      ],
      "name": "transferOwnership",
      "outputs": [],
      "stateMutability": "payable",
      "type": "function"
    },
    {
      "inputs": [
        {
          "internalType": "string",
          "name": "name",
          "type": "string"
        }
      ],
      "name": "valid",
      "outputs": [
        {
          "internalType": "bool",
          "name": "",
          "type": "bool"
        }
      ],
      "stateMutability": "pure",
      "type": "function"
    }
  ],
  "bytecode": "0x60e06040523480156200001157600080fd5b5060405162001ef738038062001ef78339810160408190526200003491620001f9565b6040516302571be360e01b8152819033906000906001600160a01b038416906302571be39062000089907f91d1777781884d03a6757a803996e38de2a42967fb37eeaca72729271025a9e2906004016200026f565b602060405180830381865afa158015620000a7573d6000803e3d6000fd5b505050506040513d601f19601f82011682018060405250810190620000cd919062000297565b604051630f41a04d60e11b81529091506001600160a01b03821690631e83409a90620000fe908590600401620002cf565b6020604051808303816000875af11580156200011e573d6000803e3d6000fd5b505050506040513d601f19601f82011682018060405250810190620001449190620002f3565b5050506001600160a01b0380861660805284811660a052831660c052506200016c3362000176565b5050505062000318565b6001600160a01b0316638b78c6d8198190558060007f8be0079c531659141344cd1fd0a4f28419497f9722a3daafe3b4186f6b6457e08180a350565b60006001600160a01b0382165b92915050565b6000620001bf82620001b2565b620001dd81620001c5565b8114620001e957600080fd5b50565b8051620001bf81620001d2565b60008060008060808587031215620002145762000214600080fd5b6000620002228787620001ec565b94505060206200023587828801620001ec565b93505060406200024887828801620001ec565b92505060606200025b87828801620001ec565b91505092959194509250565b805b82525050565b60208101620001bf828462000267565b620001dd81620001b2565b8051620001bf816200027f565b600060208284031215620002ae57620002ae600080fd5b6000620002bc84846200028a565b949350505050565b6200026981620001b2565b60208101620001bf8284620002c4565b80620001dd565b8051620001bf81620002df565b6000602082840312156200030a576200030a600080fd5b6000620002bc8484620002e6565b60805160a05160c051611b85620003726000396000818161025d01528181610c0601528181610c490152610cf9015260006101bb0152600081816107580152818161089201528181610b4e0152610d7f0152611b856000f3fe6080604052600436106101145760003560e01c8063a174e77a116100a0578063ec07fb7411610064578063ec07fb74146102ec578063f04e283e1461031c578063f0700bdc1461032f578063f2fde38b1461034f578063fee81cf41461036257600080fd5b8063a174e77a1461022b578063a8e5fbc01461024b578063ab3b584e1461027f578063aeb8ce9b1461029f578063ebc874ec146102bf57600080fd5b806354d1f13d116100e757806354d1f13d14610199578063715018a6146101a157806380869853146101a95780638da5cb5b146101ea5780639791c0971461020b57600080fd5b806301ffc9a714610119578063256929621461014f57806349919e62146101595780635028d05a14610179575b600080fd5b34801561012557600080fd5b506101396101343660046110b7565b6103a2565b60405161014691906110ea565b60405180910390f35b6101576103d9565b005b34801561016557600080fd5b50610157610174366004611222565b610428565b34801561018557600080fd5b5061015761019436600461125c565b610474565b6101576104d7565b610157610513565b3480156101b557600080fd5b506101dd7f000000000000000000000000000000000000000000000000000000000000000081565b60405161014691906112bf565b3480156101f657600080fd5b50638b78c6d8195460405161014691906112d6565b34801561021757600080fd5b5061013961022636600461137a565b610527565b34801561023757600080fd5b5061015761024636600461125c565b61053c565b34801561025757600080fd5b506101dd7f000000000000000000000000000000000000000000000000000000000000000081565b34801561028b57600080fd5b5061015761029a366004611460565b610550565b3480156102ab57600080fd5b506101396102ba36600461137a565b610861565b3480156102cb57600080fd5b506102df6102da366004611527565b61090f565b60405161014691906115bc565b3480156102f857600080fd5b5061013961030736600461125c565b60006020819052908152604090205460ff1681565b61015761032a36600461125c565b6109b4565b34801561033b57600080fd5b5061015761034a366004611527565b6109f1565b61015761035d36600461125c565b610def565b34801561036e57600080fd5b5061039561037d36600461125c565b63389a75e1600c908152600091909152602090205490565b60405161014691906115d3565b60006001600160e01b031982166301ffc9a760e01b14806103d357506001600160e01b0319821663f5f39d0960e01b145b92915050565b60006202a3006001600160401b03164201905063389a75e1600c5233600052806020600c2055337fdbf36a107da19e49527a7176a1babf963b4b0ff8cde35ee35d6cd8f1f9ac7e1d600080a250565b610430610e16565b60005b81518110156104705761045e828281518110610451576104516115e1565b6020026020010151610e31565b806104688161160d565b915050610433565b5050565b61047c610e16565b6001600160a01b03811660009081526020819052604090819020805460ff19169055517fa0691bd707b2f65c33c8343d61c274df72c6b5007937dcfbc31aa5a0d0f6fe3c906104cc9083906112d6565b60405180910390a150565b63389a75e1600c523360005260006020600c2055337ffa7b8eab7da67f412cc9575ed43464468f9bfbae89d1675917346ca6d8fe3c92600080a2565b61051b610e16565b6105256000610e84565b565b6000600161053483610ec2565b101592915050565b610544610e16565b61054d81610e31565b50565b6001600160a01b03851660009081526020819052604090205460ff166105895760405163517172a160e11b815260040160405180910390fd5b6001600160a01b03851660009081526001602090815260408083208784529091529020805461063f91906105bc9061163d565b80601f01602080910402602001604051908101604052809291908181526020018280546105e89061163d565b80156106355780601f1061060a57610100808354040283529160200191610635565b820191906000526020600020905b81548152906001019060200180831161061857829003601f168201915b5050505050610527565b1561065d576040516308275c7d60e41b815260040160405180910390fd5b6040516331a9108f60e11b81526000906001600160a01b03871690636352211e9061068c9088906004016115d3565b602060405180830381865afa1580156106a9573d6000803e3d6000fd5b505050506040513d601f19601f820116820180604052508101906106cd9190611674565b90506001600160a01b03811633146106f857604051636d45908d60e11b815260040160405180910390fd5b6001600160a01b03861660009081526001602090815260408083208884529091529020610726898b83611737565b506000898960405161073992919061180c565b604051908190038120633f2891eb60e21b825291506001600160a01b037f0000000000000000000000000000000000000000000000000000000000000000169063fca247ac906107919084908b908b90600401611819565b600060405180830381600087803b1580156107ab57600080fd5b505af11580156107bf573d6000803e3d6000fd5b5050841591506107ee9050576107ee858b8b6040516107df92919061180c565b60405180910390208686610fc5565b866001600160a01b0316886001600160a01b03168b8b60405161081292919061180c565b60405180910390207f72bef8234b2097a1da184b1678571b29305eef98d2360e7956c3b13dee987fda8d8d8b60405161084d93929190611864565b60405180910390a450505050505050505050565b8051602082012060009061087483610527565b801561090857506040516312dc929d60e31b81526001600160a01b037f000000000000000000000000000000000000000000000000000000000000000016906396e494e8906108c79084906004016115d3565b602060405180830381865afa1580156108e4573d6000803e3d6000fd5b505050506040513d601f19601f820116820180604052508101906109089190611898565b9392505050565b6001602090815260009283526040808420909152908252902080546109339061163d565b80601f016020809104026020016040519081016040528092919081815260200182805461095f9061163d565b80156109ac5780601f10610981576101008083540402835291602001916109ac565b820191906000526020600020905b81548152906001019060200180831161098f57829003601f168201915b505050505081565b6109bc610e16565b63389a75e1600c52806000526020600c2080544211156109e457636f5e88186000526004601cfd5b6000905561054d81610e84565b6001600160a01b038216600090815260016020908152604080832084845290915281208054610a1f9061163d565b80601f0160208091040260200160405190810160405280929190818152602001828054610a4b9061163d565b8015610a985780601f10610a6d57610100808354040283529160200191610a98565b820191906000526020600020905b815481529060010190602001808311610a7b57829003601f168201915b505083516020850120939450610ab392508491506105279050565b610ad85760405162461bcd60e51b8152600401610acf906118b9565b60405180910390fd5b6040516331a9108f60e11b81526000906001600160a01b03861690636352211e90610b079087906004016115d3565b602060405180830381865afa158015610b24573d6000803e3d6000fd5b505050506040513d601f19601f82011682018060405250810190610b489190611674565b905060007f00000000000000000000000000000000000000000000000000000000000000006001600160a01b0316636352211e846040518263ffffffff1660e01b8152600401610b9891906115d3565b602060405180830381865afa158015610bb5573d6000803e3d6000fd5b505050506040513d601f19601f82011682018060405250810190610bd99190611674565b90506001600160a01b0382163314610c0457604051636d45908d60e11b815260040160405180910390fd5b7f00000000000000000000000000000000000000000000000000000000000000006001600160a01b0316816001600160a01b031603610d6857816001600160a01b03167f00000000000000000000000000000000000000000000000000000000000000006001600160a01b0316636352211e856040518263ffffffff1660e01b8152600401610c9391906115d3565b602060405180830381865afa158015610cb0573d6000803e3d6000fd5b505050506040513d601f19601f82011682018060405250810190610cd49190611674565b6001600160a01b031614610d6357604051635a77774160e01b81526001600160a01b037f00000000000000000000000000000000000000000000000000000000000000001690635a77774190610d3090869086906004016118e9565b600060405180830381600087803b158015610d4a57600080fd5b505af1158015610d5e573d6000803e3d6000fd5b505050505b610de7565b60405163959725d160e01b81526001600160a01b037f0000000000000000000000000000000000000000000000000000000000000000169063959725d190610db49086906004016115d3565b600060405180830381600087803b158015610dce57600080fd5b505af1158015610de2573d6000803e3d6000fd5b505050505b505050505050565b610df7610e16565b8060601b610e0d57637448fbae6000526004601cfd5b61054d81610e84565b638b78c6d819543314610525576382b429006000526004601cfd5b6001600160a01b03811660009081526020819052604090819020805460ff19166001179055517f7701426aaa4c0c88a30924a7aba88dce66b18c4020b54e4e19c9e0eb0abc2992906104cc9083906112d6565b638b78c6d81980546001600160a01b039092169182907f8be0079c531659141344cd1fd0a4f28419497f9722a3daafe3b4186f6b6457e0600080a355565b8051600090819081905b80821015610fbc576000858381518110610ee857610ee86115e1565b01602001516001600160f81b0319169050600160ff1b811015610f1757610f10600184611904565b9250610fa9565b600760fd1b6001600160f81b031982161015610f3857610f10600284611904565b600f60fc1b6001600160f81b031982161015610f5957610f10600384611904565b601f60fb1b6001600160f81b031982161015610f7a57610f10600484611904565b603f60fa1b6001600160f81b031982161015610f9b57610f10600584611904565b610fa6600684611904565b92505b5082610fb48161160d565b935050610ecc565b50909392505050565b604051600090610ffb907ff029b4b627c4a2cd7f70eb6bb0281fec39238419d6d4df5a010dad7432a8d5c8908690602001611917565b60408051601f1981840301815290829052805160209091012063e32954eb60e01b8252915085906001600160a01b0382169063e32954eb9061104590859088908890600401611a02565b6000604051808303816000875af1158015611064573d6000803e3d6000fd5b505050506040513d6000823e601f3d908101601f1916820160405261108c9190810190611b15565b50505050505050565b6001600160e01b031981165b811461054d57600080fd5b80356103d381611095565b6000602082840312156110cc576110cc600080fd5b60006110d884846110ac565b949350505050565b8015155b82525050565b602081016103d382846110e0565b634e487b7160e01b600052604160045260246000fd5b601f19601f83011681018181106001600160401b0382111715611133576111336110f8565b6040525050565b600061114560405190565b9050611151828261110e565b919050565b60006001600160401b0382111561116f5761116f6110f8565b5060209081020190565b60006001600160a01b0382166103d3565b6110a181611179565b80356103d38161118a565b60006111b16111ac84611156565b61113a565b838152905060208082019084028301858111156111d0576111d0600080fd5b835b818110156111f457806111e58882611193565b845250602092830192016111d2565b5050509392505050565b600082601f83011261121257611212600080fd5b81356110d884826020860161119e565b60006020828403121561123757611237600080fd5b81356001600160401b0381111561125057611250600080fd5b6110d8848285016111fe565b60006020828403121561127157611271600080fd5b60006110d88484611193565b60006103d36001600160a01b038316611294565b90565b6001600160a01b031690565b60006103d38261127d565b60006103d3826112a0565b6110e4816112ab565b602081016103d382846112b6565b6110e481611179565b602081016103d382846112cd565b60006001600160401b038211156112fd576112fd6110f8565b601f19601f83011660200192915050565b82818337506000910152565b60006113286111ac846112e4565b90508281526020810184848401111561134357611343600080fd5b61134e84828561130e565b509392505050565b600082601f83011261136a5761136a600080fd5b81356110d884826020860161131a565b60006020828403121561138f5761138f600080fd5b81356001600160401b038111156113a8576113a8600080fd5b6110d884828501611356565b60008083601f8401126113c9576113c9600080fd5b5081356001600160401b038111156113e3576113e3600080fd5b6020830191508360018202830111156113fe576113fe600080fd5b9250929050565b806110a1565b80356103d381611405565b60008083601f84011261142b5761142b600080fd5b5081356001600160401b0381111561144557611445600080fd5b6020830191508360208202830111156113fe576113fe600080fd5b60008060008060008060008060c0898b03121561147f5761147f600080fd5b88356001600160401b0381111561149857611498600080fd5b6114a48b828c016113b4565b985098505060206114b78b828c01611193565b96505060406114c88b828c01611193565b95505060606114d98b828c0161140b565b94505060806114ea8b828c01611193565b93505060a08901356001600160401b0381111561150957611509600080fd5b6115158b828c01611416565b92509250509295985092959890939650565b6000806040838503121561153d5761153d600080fd5b60006115498585611193565b925050602061155a8582860161140b565b9150509250929050565b60005b8381101561157f578181015183820152602001611567565b50506000910152565b6000611592825190565b8084526020840193506115a9818560208601611564565b601f19601f8201165b9093019392505050565b602080825281016109088184611588565b806110e4565b602081016103d382846115cd565b634e487b7160e01b600052603260045260246000fd5b634e487b7160e01b600052601160045260246000fd5b60006000198203611620576116206115f7565b5060010190565b634e487b7160e01b600052602260045260246000fd5b60028104600182168061165157607f821691505b60208210810361166357611663611627565b50919050565b80516103d38161118a565b60006020828403121561168957611689600080fd5b60006110d88484611669565b60006103d36112918381565b6116aa83611695565b81546008840282811b60001990911b908116901990911617825550505050565b60006116d78184846116a1565b505050565b81811015610470576116ef6000826116ca565b6001016116dc565b601f8211156116d7576000818152602090206020601f8501048101602085101561171e5750805b6117306020601f8601048301826116dc565b5050505050565b826001600160401b0381111561174f5761174f6110f8565b611759825461163d565b6117648282856116f7565b6000601f83116001811461179857600084156117805750858201355b600019600886021c198116600286021786555061108c565b600085815260208120601f198616915b828110156117c857888501358255602094850194600190920191016117a8565b868310156117e457600019601f88166008021c19858a01351682555b60016002880201885550505050505050505050565b600061180683858461130e565b50500190565b60006110d88284866117f9565b6060810161182782866115cd565b61183460208301856112cd565b6110d860408301846115cd565b818352600060208401935061185783858461130e565b601f19601f8401166115b2565b60408082528101611876818587611841565b90506110d860208301846115cd565b8015156110a1565b80516103d381611885565b6000602082840312156118ad576118ad600080fd5b60006110d8848461188d565b602080825281016103d3816012815271546f6b656e2068617665206e6f206e616d6560701b602082015260400190565b604081016118f782856115cd565b61090860208301846112cd565b808201808211156103d3576103d36115f7565b600061192382856115cd565b60208201915061193382846115cd565b5060200192915050565b60006110d8848484611841565b6000808335601e193685900301811261196557611965600080fd5b8381016020810193503591506001600160401b0382111561198857611988600080fd5b3682900383131561199b5761199b600080fd5b509250929050565b818352600060208401935083602084028101838060005b878110156119f55784840389526119d1828461194a565b6119dc86828461193d565b95506020840160209b909b019a935050506001016119ba565b5091979650505050505050565b60408101611a1082866115cd565b8181036020830152611a238184866119a3565b95945050505050565b6000611a3a6111ac846112e4565b905082815260208101848484011115611a5557611a55600080fd5b61134e848285611564565b600082601f830112611a7457611a74600080fd5b81516110d8848260208601611a2c565b6000611a926111ac84611156565b83815290506020808201908402830185811115611ab157611ab1600080fd5b835b818110156111f45780516001600160401b03811115611ad457611ad4600080fd5b808601611ae18982611a60565b8552505060209283019201611ab3565b600082601f830112611b0557611b05600080fd5b81516110d8848260208601611a84565b600060208284031215611b2a57611b2a600080fd5b81516001600160401b03811115611b4357611b43600080fd5b6110d884828501611af156fea2646970667358221220c5bd50d6474da3eef39898d2b738a63e81e72b4d69169c7b8a704b7d4da394bd64736f6c63430008110033",
  "linkReferences": {},
  "deployedLinkReferences": {}
}